{
  "contractName": "Dispute",
  "abi": [
    {
      "constant": true,
      "inputs": [],
      "name": "creator",
      "outputs": [
        {
          "name": "",
          "type": "address"
        }
      ],
      "payable": false,
      "stateMutability": "view",
      "type": "function"
    },
    {
      "constant": true,
      "inputs": [],
      "name": "name",
      "outputs": [
        {
          "name": "",
          "type": "string"
        }
      ],
      "payable": false,
      "stateMutability": "view",
      "type": "function"
    },
    {
      "constant": true,
      "inputs": [],
      "name": "pool",
      "outputs": [
        {
          "name": "",
          "type": "address"
        }
      ],
      "payable": false,
      "stateMutability": "view",
      "type": "function"
    },
    {
      "constant": true,
      "inputs": [],
      "name": "candidatesCount",
      "outputs": [
        {
          "name": "",
          "type": "uint256"
        }
      ],
      "payable": false,
      "stateMutability": "view",
      "type": "function"
    },
    {
      "constant": true,
      "inputs": [
        {
          "name": "",
          "type": "uint256"
        }
      ],
      "name": "candidates",
      "outputs": [
        {
          "name": "id",
          "type": "uint256"
        },
        {
          "name": "voteCount",
          "type": "uint256"
        }
      ],
      "payable": false,
      "stateMutability": "view",
      "type": "function"
    },
    {
      "constant": true,
      "inputs": [],
      "name": "resolved",
      "outputs": [
        {
          "name": "",
          "type": "bool"
        }
      ],
      "payable": false,
      "stateMutability": "view",
      "type": "function"
    },
    {
      "constant": true,
      "inputs": [],
      "name": "drm",
      "outputs": [
        {
          "name": "",
          "type": "address"
        }
      ],
      "payable": false,
      "stateMutability": "view",
      "type": "function"
    },
    {
      "constant": true,
      "inputs": [
        {
          "name": "",
          "type": "address"
        }
      ],
      "name": "voters",
      "outputs": [
        {
          "name": "",
          "type": "bool"
        }
      ],
      "payable": false,
      "stateMutability": "view",
      "type": "function"
    },
    {
      "constant": true,
      "inputs": [],
      "name": "termsHash",
      "outputs": [
        {
          "name": "",
          "type": "bytes32"
        }
      ],
      "payable": false,
      "stateMutability": "view",
      "type": "function"
    },
    {
      "inputs": [
        {
          "name": "_name",
          "type": "string"
        },
        {
          "name": "_pool",
          "type": "address"
        },
        {
          "name": "_creator",
          "type": "address"
        },
        {
          "name": "_termsHash",
          "type": "bytes32"
        }
      ],
      "payable": true,
      "stateMutability": "payable",
      "type": "constructor"
    },
    {
      "constant": false,
      "inputs": [
        {
          "name": "_id",
          "type": "uint256"
        }
      ],
      "name": "vote",
      "outputs": [],
      "payable": false,
      "stateMutability": "nonpayable",
      "type": "function"
    },
    {
      "constant": false,
      "inputs": [],
      "name": "getResult",
      "outputs": [],
      "payable": false,
      "stateMutability": "nonpayable",
      "type": "function"
    }
  ],
  "bytecode": "0x6080604052604051610c84380380610c848339810180604052608081101561002657600080fd5b81019080805164010000000081111561003e57600080fd5b8281019050602081018481111561005457600080fd5b815185600182028301116401000000008211171561007157600080fd5b505092919060200180519060200190929190805190602001909291908051906020019092919050505083600090805190602001906100b0929190610225565b5082600160006101000a81548173ffffffffffffffffffffffffffffffffffffffff021916908373ffffffffffffffffffffffffffffffffffffffff1602179055508060038190555081600260006101000a81548173ffffffffffffffffffffffffffffffffffffffff021916908373ffffffffffffffffffffffffffffffffffffffff16021790555033600460006101000a81548173ffffffffffffffffffffffffffffffffffffffff021916908373ffffffffffffffffffffffffffffffffffffffff1602179055506000600460146101000a81548160ff0219169083151502179055506101ad6101cd640100000000026401000000009004565b6101c46101cd640100000000026401000000009004565b505050506102ca565b6007600081548092919060010191905055506040805190810160405280600754815260200160008152506006600060075481526020019081526020016000206000820151816000015560208201518160010155905050565b828054600181600116156101000203166002900490600052602060002090601f016020900481019282601f1061026657805160ff1916838001178555610294565b82800160010185558215610294579182015b82811115610293578251825591602001919060010190610278565b5b5090506102a191906102a5565b5090565b6102c791905b808211156102c35760008160009055506001016102ab565b5090565b90565b6109ab806102d96000396000f3fe6080604052600436106100af576000357c0100000000000000000000000000000000000000000000000000000000900463ffffffff1680630121b93f146100b457806302d05d3f146100ef57806306fdde031461014657806316f0115b146101d65780632d35a8a21461022d5780633477ee2e146102585780633f6fa655146102ae5780639dd53473146102dd578063a3ec138d14610334578063b311d9fd1461039d578063de292789146103c8575b600080fd5b3480156100c057600080fd5b506100ed600480360360208110156100d757600080fd5b81019080803590602001909291905050506103df565b005b3480156100fb57600080fd5b5061010461076c565b604051808273ffffffffffffffffffffffffffffffffffffffff1673ffffffffffffffffffffffffffffffffffffffff16815260200191505060405180910390f35b34801561015257600080fd5b5061015b610792565b6040518080602001828103825283818151815260200191508051906020019080838360005b8381101561019b578082015181840152602081019050610180565b50505050905090810190601f1680156101c85780820380516001836020036101000a031916815260200191505b509250505060405180910390f35b3480156101e257600080fd5b506101eb610830565b604051808273ffffffffffffffffffffffffffffffffffffffff1673ffffffffffffffffffffffffffffffffffffffff16815260200191505060405180910390f35b34801561023957600080fd5b50610242610856565b6040518082815260200191505060405180910390f35b34801561026457600080fd5b506102916004803603602081101561027b57600080fd5b810190808035906020019092919050505061085c565b604051808381526020018281526020019250505060405180910390f35b3480156102ba57600080fd5b506102c3610880565b604051808215151515815260200191505060405180910390f35b3480156102e957600080fd5b506102f2610893565b604051808273ffffffffffffffffffffffffffffffffffffffff1673ffffffffffffffffffffffffffffffffffffffff16815260200191505060405180910390f35b34801561034057600080fd5b506103836004803603602081101561035757600080fd5b81019080803573ffffffffffffffffffffffffffffffffffffffff1690602001909291905050506108b9565b604051808215151515815260200191505060405180910390f35b3480156103a957600080fd5b506103b26108d9565b6040518082815260200191505060405180910390f35b3480156103d457600080fd5b506103dd6108df565b005b6000600160009054906101000a900473ffffffffffffffffffffffffffffffffffffffff16905060008173ffffffffffffffffffffffffffffffffffffffff1663ec9ca18b336040518263ffffffff167c0100000000000000000000000000000000000000000000000000000000028152600401808273ffffffffffffffffffffffffffffffffffffffff1673ffffffffffffffffffffffffffffffffffffffff16815260200191505060206040518083038186803b1580156104a157600080fd5b505afa1580156104b5573d6000803e3d6000fd5b505050506040513d60208110156104cb57600080fd5b8101908080519060200190929190505050141515156104e957600080fd5b600560003373ffffffffffffffffffffffffffffffffffffffff1673ffffffffffffffffffffffffffffffffffffffff16815260200190815260200160002060009054906101000a900460ff1615151561054257600080fd5b60008211801561055457506007548211155b151561055f57600080fd5b6000808273ffffffffffffffffffffffffffffffffffffffff16633ffc00068473ffffffffffffffffffffffffffffffffffffffff1663ec9ca18b336040518263ffffffff167c0100000000000000000000000000000000000000000000000000000000028152600401808273ffffffffffffffffffffffffffffffffffffffff1673ffffffffffffffffffffffffffffffffffffffff16815260200191505060206040518083038186803b15801561061757600080fd5b505afa15801561062b573d6000803e3d6000fd5b505050506040513d602081101561064157600080fd5b81019080805190602001909291905050506040518263ffffffff167c010000000000000000000000000000000000000000000000000000000002815260040180828152602001915050604080518083038186803b1580156106a157600080fd5b505afa1580156106b5573d6000803e3d6000fd5b505050506040513d60408110156106cb57600080fd5b810190808051906020019092919080519060200190929190505050915091506001600560003373ffffffffffffffffffffffffffffffffffffffff1673ffffffffffffffffffffffffffffffffffffffff16815260200190815260200160002060006101000a81548160ff02191690831515021790555080600660008681526020019081526020016000206001016000828254019250508190555050505050565b600260009054906101000a900473ffffffffffffffffffffffffffffffffffffffff1681565b60008054600181600116156101000203166002900480601f0160208091040260200160405190810160405280929190818152602001828054600181600116156101000203166002900480156108285780601f106107fd57610100808354040283529160200191610828565b820191906000526020600020905b81548152906001019060200180831161080b57829003601f168201915b505050505081565b600160009054906101000a900473ffffffffffffffffffffffffffffffffffffffff1681565b60075481565b60066020528060005260406000206000915090508060000154908060010154905082565b600460149054906101000a900460ff1681565b600460009054906101000a900473ffffffffffffffffffffffffffffffffffffffff1681565b60056020528060005260406000206000915054906101000a900460ff1681565b60035481565b600460009054906101000a900473ffffffffffffffffffffffffffffffffffffffff1673ffffffffffffffffffffffffffffffffffffffff1663ffe39fbd6040518163ffffffff167c0100000000000000000000000000000000000000000000000000000000028152600401600060405180830381600087803b15801561096557600080fd5b505af1158015610979573d6000803e3d6000fd5b5050505056fea165627a7a723058205a27cc0a70f691180d13095ff85b9bf72110c66fea54044e1d0475726e3d0b570029",
  "source": "pragma solidity ^0.5.0;\n\nimport \"./Pool.sol\";\nimport \"./DisputeFactory.sol\";\n\ncontract Dispute {\n\tstring public name;\n\taddress public pool;\n\taddress public creator;\n\tbytes32 public termsHash;\n\taddress public drm;\n\tbool public resolved;\n\n\tstruct Candidate {\n\t\t\tuint id;\n\t\t\tuint voteCount;\n\t}\n\n\tmapping(address => bool) public voters;\n\tmapping(uint256 => Candidate) public candidates;\n\tuint256 public candidatesCount;\n\n\tconstructor(string memory _name, address _pool, address _creator, bytes32 _termsHash) payable public {\n\t\tname = _name;\n\t\tpool = _pool;\n\t\ttermsHash = _termsHash;\n\t\tcreator = _creator;\n\t\tdrm = msg.sender;\n\t\tresolved = false;\n\n\t\taddCandidate();\n\t\taddCandidate();\n\t}\n\n\tfunction addCandidate() private {\n\t\tcandidatesCount++;\n\t\tcandidates[candidatesCount] = Candidate(candidatesCount, 0);\n}\n\n\tfunction vote(uint256 _id) public {\n\t\tPool instance = Pool(pool);\n\n\t\trequire(instance.arbitratorsIds(msg.sender) != 0);\n\t\trequire(!voters[msg.sender]);\n\t\trequire(_id > 0 && _id <= candidatesCount);\n\n\t\t(address ethAddress, uint256 rep) = instance.getArbitrator(instance.arbitratorsIds(msg.sender));\n\n\t\tvoters[msg.sender] = true;\n\t\tcandidates[_id].voteCount += rep;\n\t}\n\n\tfunction getResult() public {\n\t\tDisputeFactory(drm).closeDispute();\n\t}\n\n\n\n}\n",
  "sourcePath": "/Users/kirillkorolev/Desktop/idrm/contracts/idrm/Dispute.sol",
  "compiler": {
    "name": "solc",
    "version": "0.5.0+commit.1d4f565a.Emscripten.clang"
  },
  "schemaVersion": "3.0.2",
  "updatedAt": "2019-03-16T08:53:34.693Z",
  "devdoc": {
    "methods": {}
  },
  "userdoc": {
    "methods": {}
  }
}