{
  "contractName": "DisputeFactory",
  "abi": [
    {
      "constant": true,
      "inputs": [
        {
          "name": "",
          "type": "address"
        }
      ],
      "name": "active",
      "outputs": [
        {
          "name": "",
          "type": "bool"
        }
      ],
      "payable": false,
      "stateMutability": "view",
      "type": "function",
      "signature": "0x4ea71327"
    },
    {
      "constant": true,
      "inputs": [
        {
          "name": "",
          "type": "uint256"
        }
      ],
      "name": "disputes",
      "outputs": [
        {
          "name": "",
          "type": "address"
        }
      ],
      "payable": false,
      "stateMutability": "view",
      "type": "function",
      "signature": "0x564a565d"
    },
    {
      "constant": true,
      "inputs": [],
      "name": "disputesCount",
      "outputs": [
        {
          "name": "",
          "type": "uint256"
        }
      ],
      "payable": false,
      "stateMutability": "view",
      "type": "function",
      "signature": "0x5b28f0e7"
    },
    {
      "constant": false,
      "inputs": [
        {
          "name": "_pool",
          "type": "address"
        },
        {
          "name": "_creator",
          "type": "address"
        },
        {
          "name": "_termsHash",
          "type": "bytes32"
        }
      ],
      "name": "createDispute",
      "outputs": [],
      "payable": true,
      "stateMutability": "payable",
      "type": "function",
      "signature": "0x92f93aee"
    },
    {
      "constant": false,
      "inputs": [],
      "name": "closeDispute",
      "outputs": [],
      "payable": false,
      "stateMutability": "nonpayable",
      "type": "function",
      "signature": "0xffe39fbd"
    }
  ],
  "bytecode": "0x608060405234801561001057600080fd5b50610819806100206000396000f3fe60806040526004361061006d576000357c0100000000000000000000000000000000000000000000000000000000900463ffffffff1680634ea7132714610072578063564a565d146100db5780635b28f0e71461015657806392f93aee14610181578063ffe39fbd146101ef575b600080fd5b34801561007e57600080fd5b506100c16004803603602081101561009557600080fd5b81019080803573ffffffffffffffffffffffffffffffffffffffff169060200190929190505050610206565b604051808215151515815260200191505060405180910390f35b3480156100e757600080fd5b50610114600480360360208110156100fe57600080fd5b8101908080359060200190929190505050610226565b604051808273ffffffffffffffffffffffffffffffffffffffff1673ffffffffffffffffffffffffffffffffffffffff16815260200191505060405180910390f35b34801561016257600080fd5b5061016b610259565b6040518082815260200191505060405180910390f35b6101ed6004803603606081101561019757600080fd5b81019080803573ffffffffffffffffffffffffffffffffffffffff169060200190929190803573ffffffffffffffffffffffffffffffffffffffff1690602001909291908035906020019092919050505061025f565b005b3480156101fb57600080fd5b506102046103bf565b005b60006020528060005260406000206000915054906101000a900460ff1681565b60016020528060005260406000206000915054906101000a900473ffffffffffffffffffffffffffffffffffffffff1681565b60025481565b60003484848461026d610418565b808473ffffffffffffffffffffffffffffffffffffffff1673ffffffffffffffffffffffffffffffffffffffff1681526020018373ffffffffffffffffffffffffffffffffffffffff1673ffffffffffffffffffffffffffffffffffffffff16815260200182815260200193505050506040518091039082f0801580156102f8573d6000803e3d6000fd5b509050905060016002600082825401925050819055508060016000600254815260200190815260200160002060006101000a81548173ffffffffffffffffffffffffffffffffffffffff021916908373ffffffffffffffffffffffffffffffffffffffff16021790555060016000808373ffffffffffffffffffffffffffffffffffffffff1673ffffffffffffffffffffffffffffffffffffffff16815260200190815260200160002060006101000a81548160ff02191690831515021790555050505050565b60008060003373ffffffffffffffffffffffffffffffffffffffff1673ffffffffffffffffffffffffffffffffffffffff16815260200190815260200160002060006101000a81548160ff021916908315150217905550565b6040516103c5806104298339019056fe60806040526040516060806103c58339810180604052606081101561002357600080fd5b81019080805190602001909291908051906020019092919080519060200190929190505050826000806101000a81548173ffffffffffffffffffffffffffffffffffffffff021916908373ffffffffffffffffffffffffffffffffffffffff1602179055508060028190555081600160006101000a81548173ffffffffffffffffffffffffffffffffffffffff021916908373ffffffffffffffffffffffffffffffffffffffff16021790555033600360006101000a81548173ffffffffffffffffffffffffffffffffffffffff021916908373ffffffffffffffffffffffffffffffffffffffff1602179055506000600360146101000a81548160ff0219169083151502179055505050506102878061013e6000396000f3fe60806040526004361061006d576000357c0100000000000000000000000000000000000000000000000000000000900463ffffffff16806302d05d3f1461007257806316f0115b146100c95780633f6fa655146101205780639dd534731461014f578063b311d9fd146101a6575b600080fd5b34801561007e57600080fd5b506100876101d1565b604051808273ffffffffffffffffffffffffffffffffffffffff1673ffffffffffffffffffffffffffffffffffffffff16815260200191505060405180910390f35b3480156100d557600080fd5b506100de6101f7565b604051808273ffffffffffffffffffffffffffffffffffffffff1673ffffffffffffffffffffffffffffffffffffffff16815260200191505060405180910390f35b34801561012c57600080fd5b5061013561021c565b604051808215151515815260200191505060405180910390f35b34801561015b57600080fd5b5061016461022f565b604051808273ffffffffffffffffffffffffffffffffffffffff1673ffffffffffffffffffffffffffffffffffffffff16815260200191505060405180910390f35b3480156101b257600080fd5b506101bb610255565b6040518082815260200191505060405180910390f35b600160009054906101000a900473ffffffffffffffffffffffffffffffffffffffff1681565b6000809054906101000a900473ffffffffffffffffffffffffffffffffffffffff1681565b600360149054906101000a900460ff1681565b600360009054906101000a900473ffffffffffffffffffffffffffffffffffffffff1681565b6002548156fea165627a7a72305820ba6090ccafbe8378f4b1f1c95b7f7ffe653e035c4847589692020af7da8916020029a165627a7a72305820ceb4bf899a33f84d5206eb8ac986695e5478c5d933996afcb06b35307802bbf40029",
  "source": "pragma solidity ^0.5.0;\n\nimport \"./Dispute.sol\";\n\ncontract DisputeFactory {\n    mapping(address => bool) public active;\n    mapping(uint256 => address) public disputes;\n    uint256 public disputesCount;\n\n    function createDispute(address _pool, address _creator, bytes32 _termsHash) payable public {\n        Dispute dispute = (new Dispute).value(msg.value)(_pool, _creator, _termsHash);\n        disputesCount += 1;\n        disputes[disputesCount] = address(dispute);\n        active[address(dispute)] = true;\n    }\n\n    function closeDispute() public {\n        active[msg.sender] = false;\n    }\n}\n",
  "sourcePath": "/Users/kirillkorolev/Desktop/idrm/contracts/idrm/DisputeFactory.sol",
  "compiler": {
    "name": "solc",
    "version": "0.5.0+commit.1d4f565a.Emscripten.clang"
  },
  "schemaVersion": "3.0.2",
  "updatedAt": "2019-03-01T13:38:21.672Z",
  "devdoc": {
    "methods": {}
  },
  "userdoc": {
    "methods": {}
  }
}