{
  "contractName": "DisputeFactory",
  "abi": [
    {
      "constant": true,
      "inputs": [
        {
          "name": "",
          "type": "address"
        }
      ],
      "name": "active",
      "outputs": [
        {
          "name": "",
          "type": "bool"
        }
      ],
      "payable": false,
      "stateMutability": "view",
      "type": "function",
      "signature": "0x4ea71327"
    },
    {
      "constant": true,
      "inputs": [
        {
          "name": "",
          "type": "uint256"
        }
      ],
      "name": "disputes",
      "outputs": [
        {
          "name": "",
          "type": "address"
        }
      ],
      "payable": false,
      "stateMutability": "view",
      "type": "function",
      "signature": "0x564a565d"
    },
    {
      "constant": true,
      "inputs": [],
      "name": "disputesCount",
      "outputs": [
        {
          "name": "",
          "type": "uint256"
        }
      ],
      "payable": false,
      "stateMutability": "view",
      "type": "function",
      "signature": "0x5b28f0e7"
    },
    {
      "constant": false,
      "inputs": [
        {
          "name": "_name",
          "type": "string"
        },
        {
          "name": "_pool",
          "type": "address"
        },
        {
          "name": "_creator",
          "type": "address"
        },
        {
          "name": "_termsHash",
          "type": "bytes32"
        }
      ],
      "name": "createDispute",
      "outputs": [],
      "payable": true,
      "stateMutability": "payable",
      "type": "function",
      "signature": "0x64ba52df"
    },
    {
      "constant": false,
      "inputs": [],
      "name": "closeDispute",
      "outputs": [],
      "payable": false,
      "stateMutability": "nonpayable",
      "type": "function",
      "signature": "0xffe39fbd"
    }
  ],
  "bytecode": "0x608060405234801561001057600080fd5b506111dd806100206000396000f3fe60806040526004361061006d576000357c0100000000000000000000000000000000000000000000000000000000900463ffffffff1680634ea7132714610072578063564a565d146100db5780635b28f0e71461015657806364ba52df14610181578063ffe39fbd14610286575b600080fd5b34801561007e57600080fd5b506100c16004803603602081101561009557600080fd5b81019080803573ffffffffffffffffffffffffffffffffffffffff16906020019092919050505061029d565b604051808215151515815260200191505060405180910390f35b3480156100e757600080fd5b50610114600480360360208110156100fe57600080fd5b81019080803590602001909291905050506102bd565b604051808273ffffffffffffffffffffffffffffffffffffffff1673ffffffffffffffffffffffffffffffffffffffff16815260200191505060405180910390f35b34801561016257600080fd5b5061016b6102f0565b6040518082815260200191505060405180910390f35b6102846004803603608081101561019757600080fd5b81019080803590602001906401000000008111156101b457600080fd5b8201836020820111156101c657600080fd5b803590602001918460018302840111640100000000831117156101e857600080fd5b91908080601f016020809104026020016040519081016040528093929190818152602001838380828437600081840152601f19601f820116905080830192505050505050509192919290803573ffffffffffffffffffffffffffffffffffffffff169060200190929190803573ffffffffffffffffffffffffffffffffffffffff169060200190929190803590602001909291905050506102f6565b005b34801561029257600080fd5b5061029b6104c4565b005b60006020528060005260406000206000915054906101000a900460ff1681565b60016020528060005260406000206000915054906101000a900473ffffffffffffffffffffffffffffffffffffffff1681565b60025481565b6000348585858561030561051d565b80806020018573ffffffffffffffffffffffffffffffffffffffff1673ffffffffffffffffffffffffffffffffffffffff1681526020018473ffffffffffffffffffffffffffffffffffffffff1673ffffffffffffffffffffffffffffffffffffffff168152602001838152602001828103825286818151815260200191508051906020019080838360005b838110156103ac578082015181840152602081019050610391565b50505050905090810190601f1680156103d95780820380516001836020036101000a031916815260200191505b50955050505050506040518091039082f0801580156103fc573d6000803e3d6000fd5b509050905060016002600082825401925050819055508060016000600254815260200190815260200160002060006101000a81548173ffffffffffffffffffffffffffffffffffffffff021916908373ffffffffffffffffffffffffffffffffffffffff16021790555060016000808373ffffffffffffffffffffffffffffffffffffffff1673ffffffffffffffffffffffffffffffffffffffff16815260200190815260200160002060006101000a81548160ff0219169083151502179055505050505050565b60008060003373ffffffffffffffffffffffffffffffffffffffff1673ffffffffffffffffffffffffffffffffffffffff16815260200190815260200160002060006101000a81548160ff021916908315150217905550565b604051610c848061052e8339019056fe6080604052604051610c84380380610c848339810180604052608081101561002657600080fd5b81019080805164010000000081111561003e57600080fd5b8281019050602081018481111561005457600080fd5b815185600182028301116401000000008211171561007157600080fd5b505092919060200180519060200190929190805190602001909291908051906020019092919050505083600090805190602001906100b0929190610225565b5082600160006101000a81548173ffffffffffffffffffffffffffffffffffffffff021916908373ffffffffffffffffffffffffffffffffffffffff1602179055508060038190555081600260006101000a81548173ffffffffffffffffffffffffffffffffffffffff021916908373ffffffffffffffffffffffffffffffffffffffff16021790555033600460006101000a81548173ffffffffffffffffffffffffffffffffffffffff021916908373ffffffffffffffffffffffffffffffffffffffff1602179055506000600460146101000a81548160ff0219169083151502179055506101ad6101cd640100000000026401000000009004565b6101c46101cd640100000000026401000000009004565b505050506102ca565b6007600081548092919060010191905055506040805190810160405280600754815260200160008152506006600060075481526020019081526020016000206000820151816000015560208201518160010155905050565b828054600181600116156101000203166002900490600052602060002090601f016020900481019282601f1061026657805160ff1916838001178555610294565b82800160010185558215610294579182015b82811115610293578251825591602001919060010190610278565b5b5090506102a191906102a5565b5090565b6102c791905b808211156102c35760008160009055506001016102ab565b5090565b90565b6109ab806102d96000396000f3fe6080604052600436106100af576000357c0100000000000000000000000000000000000000000000000000000000900463ffffffff1680630121b93f146100b457806302d05d3f146100ef57806306fdde031461014657806316f0115b146101d65780632d35a8a21461022d5780633477ee2e146102585780633f6fa655146102ae5780639dd53473146102dd578063a3ec138d14610334578063b311d9fd1461039d578063de292789146103c8575b600080fd5b3480156100c057600080fd5b506100ed600480360360208110156100d757600080fd5b81019080803590602001909291905050506103df565b005b3480156100fb57600080fd5b5061010461076c565b604051808273ffffffffffffffffffffffffffffffffffffffff1673ffffffffffffffffffffffffffffffffffffffff16815260200191505060405180910390f35b34801561015257600080fd5b5061015b610792565b6040518080602001828103825283818151815260200191508051906020019080838360005b8381101561019b578082015181840152602081019050610180565b50505050905090810190601f1680156101c85780820380516001836020036101000a031916815260200191505b509250505060405180910390f35b3480156101e257600080fd5b506101eb610830565b604051808273ffffffffffffffffffffffffffffffffffffffff1673ffffffffffffffffffffffffffffffffffffffff16815260200191505060405180910390f35b34801561023957600080fd5b50610242610856565b6040518082815260200191505060405180910390f35b34801561026457600080fd5b506102916004803603602081101561027b57600080fd5b810190808035906020019092919050505061085c565b604051808381526020018281526020019250505060405180910390f35b3480156102ba57600080fd5b506102c3610880565b604051808215151515815260200191505060405180910390f35b3480156102e957600080fd5b506102f2610893565b604051808273ffffffffffffffffffffffffffffffffffffffff1673ffffffffffffffffffffffffffffffffffffffff16815260200191505060405180910390f35b34801561034057600080fd5b506103836004803603602081101561035757600080fd5b81019080803573ffffffffffffffffffffffffffffffffffffffff1690602001909291905050506108b9565b604051808215151515815260200191505060405180910390f35b3480156103a957600080fd5b506103b26108d9565b6040518082815260200191505060405180910390f35b3480156103d457600080fd5b506103dd6108df565b005b6000600160009054906101000a900473ffffffffffffffffffffffffffffffffffffffff16905060008173ffffffffffffffffffffffffffffffffffffffff1663ec9ca18b336040518263ffffffff167c0100000000000000000000000000000000000000000000000000000000028152600401808273ffffffffffffffffffffffffffffffffffffffff1673ffffffffffffffffffffffffffffffffffffffff16815260200191505060206040518083038186803b1580156104a157600080fd5b505afa1580156104b5573d6000803e3d6000fd5b505050506040513d60208110156104cb57600080fd5b8101908080519060200190929190505050141515156104e957600080fd5b600560003373ffffffffffffffffffffffffffffffffffffffff1673ffffffffffffffffffffffffffffffffffffffff16815260200190815260200160002060009054906101000a900460ff1615151561054257600080fd5b60008211801561055457506007548211155b151561055f57600080fd5b6000808273ffffffffffffffffffffffffffffffffffffffff16633ffc00068473ffffffffffffffffffffffffffffffffffffffff1663ec9ca18b336040518263ffffffff167c0100000000000000000000000000000000000000000000000000000000028152600401808273ffffffffffffffffffffffffffffffffffffffff1673ffffffffffffffffffffffffffffffffffffffff16815260200191505060206040518083038186803b15801561061757600080fd5b505afa15801561062b573d6000803e3d6000fd5b505050506040513d602081101561064157600080fd5b81019080805190602001909291905050506040518263ffffffff167c010000000000000000000000000000000000000000000000000000000002815260040180828152602001915050604080518083038186803b1580156106a157600080fd5b505afa1580156106b5573d6000803e3d6000fd5b505050506040513d60408110156106cb57600080fd5b810190808051906020019092919080519060200190929190505050915091506001600560003373ffffffffffffffffffffffffffffffffffffffff1673ffffffffffffffffffffffffffffffffffffffff16815260200190815260200160002060006101000a81548160ff02191690831515021790555080600660008681526020019081526020016000206001016000828254019250508190555050505050565b600260009054906101000a900473ffffffffffffffffffffffffffffffffffffffff1681565b60008054600181600116156101000203166002900480601f0160208091040260200160405190810160405280929190818152602001828054600181600116156101000203166002900480156108285780601f106107fd57610100808354040283529160200191610828565b820191906000526020600020905b81548152906001019060200180831161080b57829003601f168201915b505050505081565b600160009054906101000a900473ffffffffffffffffffffffffffffffffffffffff1681565b60075481565b60066020528060005260406000206000915090508060000154908060010154905082565b600460149054906101000a900460ff1681565b600460009054906101000a900473ffffffffffffffffffffffffffffffffffffffff1681565b60056020528060005260406000206000915054906101000a900460ff1681565b60035481565b600460009054906101000a900473ffffffffffffffffffffffffffffffffffffffff1673ffffffffffffffffffffffffffffffffffffffff1663ffe39fbd6040518163ffffffff167c0100000000000000000000000000000000000000000000000000000000028152600401600060405180830381600087803b15801561096557600080fd5b505af1158015610979573d6000803e3d6000fd5b5050505056fea165627a7a723058205a27cc0a70f691180d13095ff85b9bf72110c66fea54044e1d0475726e3d0b570029a165627a7a72305820f2257f8f9909416f9bf0cfb92020590b9d352af1ad6af831649485ddc69679b90029",
  "source": "pragma solidity ^0.5.0;\n\nimport \"./Dispute.sol\";\n\ncontract DisputeFactory {\n    mapping(address => bool) public active;\n    mapping(uint256 => address) public disputes;\n    uint256 public disputesCount;\n\n    function createDispute(string memory _name, address _pool, address _creator, bytes32 _termsHash) payable public {\n        Dispute dispute = (new Dispute).value(msg.value)(_name, _pool, _creator, _termsHash);\n        disputesCount += 1;\n        disputes[disputesCount] = address(dispute);\n        active[address(dispute)] = true;\n    }\n\n    function closeDispute() public {\n        active[msg.sender] = false;\n    }\n}\n",
  "sourcePath": "/Users/kirillkorolev/Desktop/idrm/contracts/idrm/DisputeFactory.sol",
  "compiler": {
    "name": "solc",
    "version": "0.5.0+commit.1d4f565a.Emscripten.clang"
  },
  "schemaVersion": "3.0.2",
  "updatedAt": "2019-03-16T08:53:34.687Z",
  "devdoc": {
    "methods": {}
  },
  "userdoc": {
    "methods": {}
  }
}