{
  "contractName": "Pool",
  "abi": [
    {
      "constant": true,
      "inputs": [],
      "name": "name",
      "outputs": [
        {
          "name": "",
          "type": "string"
        }
      ],
      "payable": false,
      "stateMutability": "view",
      "type": "function"
    },
    {
      "constant": true,
      "inputs": [
        {
          "name": "",
          "type": "address"
        }
      ],
      "name": "pendingArbitrators",
      "outputs": [
        {
          "name": "",
          "type": "uint256"
        }
      ],
      "payable": false,
      "stateMutability": "view",
      "type": "function"
    },
    {
      "constant": true,
      "inputs": [],
      "name": "mastersCount",
      "outputs": [
        {
          "name": "",
          "type": "uint256"
        }
      ],
      "payable": false,
      "stateMutability": "view",
      "type": "function"
    },
    {
      "constant": true,
      "inputs": [],
      "name": "arbitratorsCount",
      "outputs": [
        {
          "name": "",
          "type": "uint256"
        }
      ],
      "payable": false,
      "stateMutability": "view",
      "type": "function"
    },
    {
      "constant": true,
      "inputs": [
        {
          "name": "",
          "type": "address"
        }
      ],
      "name": "mastersIds",
      "outputs": [
        {
          "name": "",
          "type": "uint256"
        }
      ],
      "payable": false,
      "stateMutability": "view",
      "type": "function"
    },
    {
      "constant": true,
      "inputs": [
        {
          "name": "",
          "type": "address"
        }
      ],
      "name": "arbitratorsIds",
      "outputs": [
        {
          "name": "",
          "type": "uint256"
        }
      ],
      "payable": false,
      "stateMutability": "view",
      "type": "function"
    },
    {
      "inputs": [
        {
          "name": "_name",
          "type": "string"
        },
        {
          "name": "_masters",
          "type": "address[]"
        }
      ],
      "payable": false,
      "stateMutability": "nonpayable",
      "type": "constructor"
    },
    {
      "anonymous": false,
      "inputs": [
        {
          "indexed": false,
          "name": "_arbitrator",
          "type": "address"
        }
      ],
      "name": "PendingArbitrator",
      "type": "event"
    },
    {
      "constant": false,
      "inputs": [],
      "name": "becomeArbitrator",
      "outputs": [],
      "payable": false,
      "stateMutability": "nonpayable",
      "type": "function"
    },
    {
      "constant": false,
      "inputs": [],
      "name": "leavePool",
      "outputs": [],
      "payable": false,
      "stateMutability": "nonpayable",
      "type": "function"
    },
    {
      "constant": false,
      "inputs": [
        {
          "name": "_arbitrator",
          "type": "address"
        }
      ],
      "name": "confirmArbitrator",
      "outputs": [],
      "payable": false,
      "stateMutability": "nonpayable",
      "type": "function"
    },
    {
      "constant": false,
      "inputs": [
        {
          "name": "_arbitrator",
          "type": "address"
        }
      ],
      "name": "denyArbitrator",
      "outputs": [],
      "payable": false,
      "stateMutability": "nonpayable",
      "type": "function"
    }
  ],
  "bytecode": "0x60806040523480156200001157600080fd5b5060405162000f3538038062000f35833981018060405260408110156200003757600080fd5b8101908080516401000000008111156200005057600080fd5b828101905060208101848111156200006757600080fd5b81518560018202830111640100000000821117156200008557600080fd5b50509291906020018051640100000000811115620000a257600080fd5b82810190506020810184811115620000b957600080fd5b8151856020820283011164010000000082111715620000d757600080fd5b505092919050505060008151118015620000f2575060058151105b1515620000fe57600080fd5b8160079080519060200190620001169291906200021a565b5060008090505b81518110156200020957600181016001600084848151811015156200013e57fe5b9060200190602002015173ffffffffffffffffffffffffffffffffffffffff1673ffffffffffffffffffffffffffffffffffffffff168152602001908152602001600020819055506020604051908101604052600080600160008686815181101515620001a757fe5b9060200190602002015173ffffffffffffffffffffffffffffffffffffffff1673ffffffffffffffffffffffffffffffffffffffff1681526020019081526020016000205481526020019081526020016000209050508060010190506200011d565b5080516002819055505050620002c9565b828054600181600116156101000203166002900490600052602060002090601f016020900481019282601f106200025d57805160ff19168380011785556200028e565b828001600101855582156200028e579182015b828111156200028d57825182559160200191906001019062000270565b5b5090506200029d9190620002a1565b5090565b620002c691905b80821115620002c2576000816000905550600101620002a8565b5090565b90565b610c5c80620002d96000396000f3fe6080604052600436106100a4576000357c0100000000000000000000000000000000000000000000000000000000900463ffffffff16806306fdde03146100a957806307e774091461013957806313f98bc31461019e57806315a77b57146101ef5780635349a9e81461020657806384c40dd214610231578063923651b014610282578063e51cbe69146102ad578063ec9ca18b14610312578063f19e9d8114610377575b600080fd5b3480156100b557600080fd5b506100be61038e565b6040518080602001828103825283818151815260200191508051906020019080838360005b838110156100fe5780820151818401526020810190506100e3565b50505050905090810190601f16801561012b5780820380516001836020036101000a031916815260200191505b509250505060405180910390f35b34801561014557600080fd5b506101886004803603602081101561015c57600080fd5b81019080803573ffffffffffffffffffffffffffffffffffffffff16906020019092919050505061042c565b6040518082815260200191505060405180910390f35b3480156101aa57600080fd5b506101ed600480360360208110156101c157600080fd5b81019080803573ffffffffffffffffffffffffffffffffffffffff169060200190929190505050610444565b005b3480156101fb57600080fd5b506102046105b3565b005b34801561021257600080fd5b5061021b6106b6565b6040518082815260200191505060405180910390f35b34801561023d57600080fd5b506102806004803603602081101561025457600080fd5b81019080803573ffffffffffffffffffffffffffffffffffffffff1690602001909291905050506106bc565b005b34801561028e57600080fd5b50610297610955565b6040518082815260200191505060405180910390f35b3480156102b957600080fd5b506102fc600480360360208110156102d057600080fd5b81019080803573ffffffffffffffffffffffffffffffffffffffff16906020019092919050505061095b565b6040518082815260200191505060405180910390f35b34801561031e57600080fd5b506103616004803603602081101561033557600080fd5b81019080803573ffffffffffffffffffffffffffffffffffffffff169060200190929190505050610973565b6040518082815260200191505060405180910390f35b34801561038357600080fd5b5061038c61098b565b005b60078054600181600116156101000203166002900480601f0160208091040260200160405190810160405280929190818152602001828054600181600116156101000203166002900480156104245780601f106103f957610100808354040283529160200191610424565b820191906000526020600020905b81548152906001019060200180831161040757829003601f168201915b505050505081565b60036020528060005260406000206000915090505481565b6000600160003373ffffffffffffffffffffffffffffffffffffffff1673ffffffffffffffffffffffffffffffffffffffff168152602001908152602001600020541415151561049357600080fd5b806000600560008373ffffffffffffffffffffffffffffffffffffffff1673ffffffffffffffffffffffffffffffffffffffff168152602001908152602001600020541415156104e257600080fd5b6000600190505b60025481101561056957600080600083815260200190815260200160002060000160008573ffffffffffffffffffffffffffffffffffffffff1673ffffffffffffffffffffffffffffffffffffffff16815260200190815260200160002060006101000a81548160ff0219169083151502179055508060010190506104e9565b506000600360008473ffffffffffffffffffffffffffffffffffffffff1673ffffffffffffffffffffffffffffffffffffffff168152602001908152602001600020819055505050565b336000600560008373ffffffffffffffffffffffffffffffffffffffff1673ffffffffffffffffffffffffffffffffffffffff1681526020019081526020016000205414151561060257600080fd5b6000600160003373ffffffffffffffffffffffffffffffffffffffff1673ffffffffffffffffffffffffffffffffffffffff1681526020019081526020016000205414151561065057600080fd5b7ff717a2ff3d2783dd7f0a33f194c2c81bbf8df1fa4cdfc41c81097fdb209bc5e133604051808273ffffffffffffffffffffffffffffffffffffffff1673ffffffffffffffffffffffffffffffffffffffff16815260200191505060405180910390a150565b60025481565b6000600160003373ffffffffffffffffffffffffffffffffffffffff1673ffffffffffffffffffffffffffffffffffffffff168152602001908152602001600020541415151561070b57600080fd5b806000600560008373ffffffffffffffffffffffffffffffffffffffff1673ffffffffffffffffffffffffffffffffffffffff1681526020019081526020016000205414151561075a57600080fd5b600080600160003373ffffffffffffffffffffffffffffffffffffffff1673ffffffffffffffffffffffffffffffffffffffff16815260200190815260200160002054815260200190815260200160002060000160008373ffffffffffffffffffffffffffffffffffffffff1673ffffffffffffffffffffffffffffffffffffffff16815260200190815260200160002060009054906101000a900460ff1615151561080557600080fd5b6001600080600160003373ffffffffffffffffffffffffffffffffffffffff1673ffffffffffffffffffffffffffffffffffffffff16815260200190815260200160002054815260200190815260200160002060000160008473ffffffffffffffffffffffffffffffffffffffff1673ffffffffffffffffffffffffffffffffffffffff16815260200190815260200160002060006101000a81548160ff021916908315150217905550600360008373ffffffffffffffffffffffffffffffffffffffff1673ffffffffffffffffffffffffffffffffffffffff16815260200190815260200160002060008154809291906001019190505550600254600360008473ffffffffffffffffffffffffffffffffffffffff1673ffffffffffffffffffffffffffffffffffffffff1681526020019081526020016000205414156109515761095082610a6a565b5b5050565b60065481565b60016020528060005260406000206000915090505481565b60056020528060005260406000206000915090505481565b6000600560003373ffffffffffffffffffffffffffffffffffffffff1673ffffffffffffffffffffffffffffffffffffffff168152602001908152602001600020549050600081141515156109df57600080fd5b600560003373ffffffffffffffffffffffffffffffffffffffff1673ffffffffffffffffffffffffffffffffffffffff1681526020019081526020016000206000905560046000828152602001908152602001600020600080820160006101000a81549073ffffffffffffffffffffffffffffffffffffffff02191690556001820160009055505050565b6000600160003373ffffffffffffffffffffffffffffffffffffffff1673ffffffffffffffffffffffffffffffffffffffff1681526020019081526020016000205414151515610ab957600080fd5b806000600560008373ffffffffffffffffffffffffffffffffffffffff1673ffffffffffffffffffffffffffffffffffffffff16815260200190815260200160002054141515610b0857600080fd5b600660008154600101919050819055600560008473ffffffffffffffffffffffffffffffffffffffff1673ffffffffffffffffffffffffffffffffffffffff1681526020019081526020016000208190555060408051908101604052808373ffffffffffffffffffffffffffffffffffffffff168152602001600181525060046000600560008673ffffffffffffffffffffffffffffffffffffffff1673ffffffffffffffffffffffffffffffffffffffff16815260200190815260200160002054815260200190815260200160002060008201518160000160006101000a81548173ffffffffffffffffffffffffffffffffffffffff021916908373ffffffffffffffffffffffffffffffffffffffff16021790555060208201518160010155905050505056fea165627a7a72305820ad696518cd9637bd57c11d5b4369801deca8668ca961fbbc580c943d047f804f0029",
  "source": "pragma solidity ^0.5.0;\n\ncontract Pool {\n\n\t// Basically master is the creator of a pool\n\t// It can only be one person or any other number\n\t// of masters up to 5 (exclusively)\n\t//\n\t// Currently all masters have similar rights and\n\t// power and unlike arbitrators they're not elected\n\t//\n\t// Once a person wants to become an arbitrator\n\t// one is added to a pending list and after that\n\t// all of the masters must confirm that\n\tstruct Master {\n\t\tmapping(address => bool) confirmedArbitrators;\n\t}\n\n\tstruct Arbitrator {\n\t\taddress ethAddress;\n\t\tuint256 reputation;\n\t}\n\n\tmapping(uint256 => Master) internal masters;\n\tmapping(address => uint256) public mastersIds;\n\tuint256 public mastersCount;\n\n\tmapping(address => uint256) public pendingArbitrators;\n\n\tmapping(uint256 => Arbitrator) internal arbitrators;\n\tmapping(address => uint256) public arbitratorsIds;\n\tuint256 public arbitratorsCount;\n\n\tstring public name;\n\n\tevent PendingArbitrator(address _arbitrator);\n\n\tmodifier onlyMasters {\n\t\trequire(mastersIds[msg.sender] != 0);\n\t\t_;\n\t}\n\n\tmodifier isPendingArbitrator(address _arbitrator) {\n\t\trequire(arbitratorsIds[_arbitrator] == 0);\n\t\t_;\n\t}\n\n\tconstructor(string memory _name, address[] memory _masters) public {\n\t\trequire(_masters.length > 0 && _masters.length < 5);\n\n\t\tname = _name;\n\n\t\tfor(uint256 i = 0; i < _masters.length; ++i) {\n\t\t\tmastersIds[_masters[i]] = i + 1;\n\t\t\tmasters[mastersIds[_masters[i]]] = Master();\n\t\t}\n\n\t\tmastersCount = _masters.length;\n\t}\n\n\tfunction becomeArbitrator() public isPendingArbitrator(msg.sender) {\n\t\trequire(mastersIds[msg.sender] == 0);\n\t\temit PendingArbitrator(msg.sender);\n\t}\n\n\tfunction leavePool() public {\n\t\tuint256 id = arbitratorsIds[msg.sender];\n\t\trequire(id != 0);\n\t\tdelete arbitratorsIds[msg.sender];\n\t\tdelete arbitrators[id];\n\t}\n\n\tfunction confirmArbitrator(address _arbitrator) public onlyMasters isPendingArbitrator(_arbitrator) {\n\t\trequire(!masters[mastersIds[msg.sender]].confirmedArbitrators[_arbitrator]);\n\t\tmasters[mastersIds[msg.sender]].confirmedArbitrators[_arbitrator] = true;\n\t\tpendingArbitrators[_arbitrator]++;\n\n\t\tif (pendingArbitrators[_arbitrator] == mastersCount) {\n\t\t\taddArbitrator(_arbitrator);\n\t\t}\n\t}\n\n\tfunction denyArbitrator(address _arbitrator) public onlyMasters isPendingArbitrator(_arbitrator) {\n\n\t\tfor(uint256 i = 1; i < mastersCount; ++i) {\n\t\t\tmasters[i].confirmedArbitrators[_arbitrator] = false;\n\t\t}\n\n\t\tpendingArbitrators[_arbitrator] = 0;\n\t}\n\n\tfunction addArbitrator(address _arbitrator) private onlyMasters isPendingArbitrator(_arbitrator) {\n\t\tarbitratorsIds[_arbitrator] = ++arbitratorsCount;\n\t\tarbitrators[arbitratorsIds[_arbitrator]] = Arbitrator(_arbitrator, 1);\n\t}\n}\n",
  "sourcePath": "/Users/kirillkorolev/Desktop/idrm/contracts/idrm/Pool.sol",
  "compiler": {
    "name": "solc",
    "version": "0.5.0+commit.1d4f565a.Emscripten.clang"
  },
  "schemaVersion": "3.0.2",
  "updatedAt": "2019-03-01T13:38:21.676Z",
  "devdoc": {
    "methods": {}
  },
  "userdoc": {
    "methods": {}
  }
}