{
  "contractName": "Pool",
  "abi": [
    {
      "constant": true,
      "inputs": [],
      "name": "name",
      "outputs": [
        {
          "name": "",
          "type": "string"
        }
      ],
      "payable": false,
      "stateMutability": "view",
      "type": "function"
    },
    {
      "constant": true,
      "inputs": [
        {
          "name": "",
          "type": "uint256"
        }
      ],
      "name": "pendingArbitrators",
      "outputs": [
        {
          "name": "",
          "type": "uint256"
        }
      ],
      "payable": false,
      "stateMutability": "view",
      "type": "function"
    },
    {
      "constant": true,
      "inputs": [
        {
          "name": "",
          "type": "uint256"
        }
      ],
      "name": "pendingArbitratorsAddresses",
      "outputs": [
        {
          "name": "",
          "type": "address"
        }
      ],
      "payable": false,
      "stateMutability": "view",
      "type": "function"
    },
    {
      "constant": true,
      "inputs": [],
      "name": "pendingArbitratorsCount",
      "outputs": [
        {
          "name": "",
          "type": "uint256"
        }
      ],
      "payable": false,
      "stateMutability": "view",
      "type": "function"
    },
    {
      "constant": true,
      "inputs": [],
      "name": "mastersCount",
      "outputs": [
        {
          "name": "",
          "type": "uint256"
        }
      ],
      "payable": false,
      "stateMutability": "view",
      "type": "function"
    },
    {
      "constant": true,
      "inputs": [
        {
          "name": "",
          "type": "address"
        }
      ],
      "name": "pendingArbitratorsIds",
      "outputs": [
        {
          "name": "",
          "type": "uint256"
        }
      ],
      "payable": false,
      "stateMutability": "view",
      "type": "function"
    },
    {
      "constant": true,
      "inputs": [],
      "name": "arbitratorsCount",
      "outputs": [
        {
          "name": "",
          "type": "uint256"
        }
      ],
      "payable": false,
      "stateMutability": "view",
      "type": "function"
    },
    {
      "constant": true,
      "inputs": [
        {
          "name": "",
          "type": "address"
        }
      ],
      "name": "mastersIds",
      "outputs": [
        {
          "name": "",
          "type": "uint256"
        }
      ],
      "payable": false,
      "stateMutability": "view",
      "type": "function"
    },
    {
      "constant": true,
      "inputs": [
        {
          "name": "",
          "type": "address"
        }
      ],
      "name": "arbitratorsIds",
      "outputs": [
        {
          "name": "",
          "type": "uint256"
        }
      ],
      "payable": false,
      "stateMutability": "view",
      "type": "function"
    },
    {
      "inputs": [
        {
          "name": "_name",
          "type": "string"
        },
        {
          "name": "_masters",
          "type": "address[]"
        }
      ],
      "payable": false,
      "stateMutability": "nonpayable",
      "type": "constructor"
    },
    {
      "anonymous": false,
      "inputs": [
        {
          "indexed": false,
          "name": "_arbitrator",
          "type": "address"
        }
      ],
      "name": "PendingArbitrator",
      "type": "event"
    },
    {
      "constant": false,
      "inputs": [],
      "name": "becomeArbitrator",
      "outputs": [],
      "payable": false,
      "stateMutability": "nonpayable",
      "type": "function"
    },
    {
      "constant": false,
      "inputs": [],
      "name": "leavePool",
      "outputs": [],
      "payable": false,
      "stateMutability": "nonpayable",
      "type": "function"
    },
    {
      "constant": false,
      "inputs": [
        {
          "name": "_arbitrator",
          "type": "address"
        }
      ],
      "name": "confirmArbitrator",
      "outputs": [],
      "payable": false,
      "stateMutability": "nonpayable",
      "type": "function"
    },
    {
      "constant": false,
      "inputs": [
        {
          "name": "_arbitrator",
          "type": "address"
        }
      ],
      "name": "denyArbitrator",
      "outputs": [],
      "payable": false,
      "stateMutability": "nonpayable",
      "type": "function"
    },
    {
      "constant": true,
      "inputs": [
        {
          "name": "_index",
          "type": "uint256"
        }
      ],
      "name": "getArbitrator",
      "outputs": [
        {
          "name": "",
          "type": "address"
        },
        {
          "name": "",
          "type": "uint256"
        }
      ],
      "payable": false,
      "stateMutability": "view",
      "type": "function"
    }
  ],
  "bytecode": "0x60806040523480156200001157600080fd5b506040516200131d3803806200131d833981018060405260408110156200003757600080fd5b8101908080516401000000008111156200005057600080fd5b828101905060208101848111156200006757600080fd5b81518560018202830111640100000000821117156200008557600080fd5b50509291906020018051640100000000811115620000a257600080fd5b82810190506020810184811115620000b957600080fd5b8151856020820283011164010000000082111715620000d757600080fd5b505092919050505060008151118015620000f2575060058151105b1515620000fe57600080fd5b81600a9080519060200190620001169291906200022a565b5060008090505b81518110156200020957600181016001600084848151811015156200013e57fe5b9060200190602002015173ffffffffffffffffffffffffffffffffffffffff1673ffffffffffffffffffffffffffffffffffffffff168152602001908152602001600020819055506020604051908101604052600080600160008686815181101515620001a757fe5b9060200190602002015173ffffffffffffffffffffffffffffffffffffffff1673ffffffffffffffffffffffffffffffffffffffff1681526020019081526020016000205481526020019081526020016000209050508060010190506200011d565b508051600281905550600060068190555060006009819055505050620002d9565b828054600181600116156101000203166002900490600052602060002090601f016020900481019282601f106200026d57805160ff19168380011785556200029e565b828001600101855582156200029e579182015b828111156200029d57825182559160200191906001019062000280565b5b509050620002ad9190620002b1565b5090565b620002d691905b80821115620002d2576000816000905550600101620002b8565b5090565b90565b61103480620002e96000396000f3fe6080604052600436106100d0576000357c0100000000000000000000000000000000000000000000000000000000900463ffffffff16806306fdde03146100d557806313f98bc31461016557806315a77b57146101b6578063193c9604146101cd578063256650cf1461021c5780633ffc000614610297578063531e151b146103195780635349a9e8146103445780637f7d083d1461036f57806384c40dd2146103d4578063923651b014610425578063e51cbe6914610450578063ec9ca18b146104b5578063f19e9d811461051a575b600080fd5b3480156100e157600080fd5b506100ea610531565b6040518080602001828103825283818151815260200191508051906020019080838360005b8381101561012a57808201518184015260208101905061010f565b50505050905090810190601f1680156101575780820380516001836020036101000a031916815260200191505b509250505060405180910390f35b34801561017157600080fd5b506101b46004803603602081101561018857600080fd5b81019080803573ffffffffffffffffffffffffffffffffffffffff1690602001909291905050506105cf565b005b3480156101c257600080fd5b506101cb610751565b005b3480156101d957600080fd5b50610206600480360360208110156101f057600080fd5b8101908080359060200190929190505050610994565b6040518082815260200191505060405180910390f35b34801561022857600080fd5b506102556004803603602081101561023f57600080fd5b81019080803590602001909291905050506109ac565b604051808273ffffffffffffffffffffffffffffffffffffffff1673ffffffffffffffffffffffffffffffffffffffff16815260200191505060405180910390f35b3480156102a357600080fd5b506102d0600480360360208110156102ba57600080fd5b81019080803590602001909291905050506109df565b604051808373ffffffffffffffffffffffffffffffffffffffff1673ffffffffffffffffffffffffffffffffffffffff1681526020018281526020019250505060405180910390f35b34801561032557600080fd5b5061032e610a39565b6040518082815260200191505060405180910390f35b34801561035057600080fd5b50610359610a3f565b6040518082815260200191505060405180910390f35b34801561037b57600080fd5b506103be6004803603602081101561039257600080fd5b81019080803573ffffffffffffffffffffffffffffffffffffffff169060200190929190505050610a45565b6040518082815260200191505060405180910390f35b3480156103e057600080fd5b50610423600480360360208110156103f757600080fd5b81019080803573ffffffffffffffffffffffffffffffffffffffff169060200190929190505050610a5d565b005b34801561043157600080fd5b5061043a610d1f565b6040518082815260200191505060405180910390f35b34801561045c57600080fd5b5061049f6004803603602081101561047357600080fd5b81019080803573ffffffffffffffffffffffffffffffffffffffff169060200190929190505050610d25565b6040518082815260200191505060405180910390f35b3480156104c157600080fd5b50610504600480360360208110156104d857600080fd5b81019080803573ffffffffffffffffffffffffffffffffffffffff169060200190929190505050610d3d565b6040518082815260200191505060405180910390f35b34801561052657600080fd5b5061052f610d55565b005b600a8054600181600116156101000203166002900480601f0160208091040260200160405190810160405280929190818152602001828054600181600116156101000203166002900480156105c75780601f1061059c576101008083540402835291602001916105c7565b820191906000526020600020905b8154815290600101906020018083116105aa57829003601f168201915b505050505081565b6000600160003373ffffffffffffffffffffffffffffffffffffffff1673ffffffffffffffffffffffffffffffffffffffff168152602001908152602001600020541415151561061e57600080fd5b806000600860008373ffffffffffffffffffffffffffffffffffffffff1673ffffffffffffffffffffffffffffffffffffffff1681526020019081526020016000205414151561066d57600080fd5b6000600190505b6002548110156106f457600080600083815260200190815260200160002060000160008573ffffffffffffffffffffffffffffffffffffffff1673ffffffffffffffffffffffffffffffffffffffff16815260200190815260200160002060006101000a81548160ff021916908315150217905550806001019050610674565b50600060036000600460008673ffffffffffffffffffffffffffffffffffffffff1673ffffffffffffffffffffffffffffffffffffffff168152602001908152602001600020548152602001908152602001600020819055505050565b336000600860008373ffffffffffffffffffffffffffffffffffffffff1673ffffffffffffffffffffffffffffffffffffffff168152602001908152602001600020541415156107a057600080fd5b6000600160003373ffffffffffffffffffffffffffffffffffffffff1673ffffffffffffffffffffffffffffffffffffffff168152602001908152602001600020541415156107ee57600080fd5b6001600660008282540192505081905550600654600460003373ffffffffffffffffffffffffffffffffffffffff1673ffffffffffffffffffffffffffffffffffffffff16815260200190815260200160002081905550600160036000600460003373ffffffffffffffffffffffffffffffffffffffff1673ffffffffffffffffffffffffffffffffffffffff168152602001908152602001600020548152602001908152602001600020819055503360056000600460003373ffffffffffffffffffffffffffffffffffffffff1673ffffffffffffffffffffffffffffffffffffffff16815260200190815260200160002054815260200190815260200160002060006101000a81548173ffffffffffffffffffffffffffffffffffffffff021916908373ffffffffffffffffffffffffffffffffffffffff1602179055507ff717a2ff3d2783dd7f0a33f194c2c81bbf8df1fa4cdfc41c81097fdb209bc5e133604051808273ffffffffffffffffffffffffffffffffffffffff1673ffffffffffffffffffffffffffffffffffffffff16815260200191505060405180910390a150565b60036020528060005260406000206000915090505481565b60056020528060005260406000206000915054906101000a900473ffffffffffffffffffffffffffffffffffffffff1681565b6000806007600084815260200190815260200160002060000160009054906101000a900473ffffffffffffffffffffffffffffffffffffffff16600760008581526020019081526020016000206001015491509150915091565b60065481565b60025481565b60046020528060005260406000206000915090505481565b6000600160003373ffffffffffffffffffffffffffffffffffffffff1673ffffffffffffffffffffffffffffffffffffffff1681526020019081526020016000205414151515610aac57600080fd5b806000600860008373ffffffffffffffffffffffffffffffffffffffff1673ffffffffffffffffffffffffffffffffffffffff16815260200190815260200160002054141515610afb57600080fd5b600080600160003373ffffffffffffffffffffffffffffffffffffffff1673ffffffffffffffffffffffffffffffffffffffff16815260200190815260200160002054815260200190815260200160002060000160008373ffffffffffffffffffffffffffffffffffffffff1673ffffffffffffffffffffffffffffffffffffffff16815260200190815260200160002060009054906101000a900460ff16151515610ba657600080fd5b6001600080600160003373ffffffffffffffffffffffffffffffffffffffff1673ffffffffffffffffffffffffffffffffffffffff16815260200190815260200160002054815260200190815260200160002060000160008473ffffffffffffffffffffffffffffffffffffffff1673ffffffffffffffffffffffffffffffffffffffff16815260200190815260200160002060006101000a81548160ff02191690831515021790555060036000600460008573ffffffffffffffffffffffffffffffffffffffff1673ffffffffffffffffffffffffffffffffffffffff1681526020019081526020016000205481526020019081526020016000206000815480929190600101919050555060016002540160036000600460008673ffffffffffffffffffffffffffffffffffffffff1673ffffffffffffffffffffffffffffffffffffffff168152602001908152602001600020548152602001908152602001600020541415610d1b57610d1a82610e34565b5b5050565b60095481565b60016020528060005260406000206000915090505481565b60086020528060005260406000206000915090505481565b6000600860003373ffffffffffffffffffffffffffffffffffffffff1673ffffffffffffffffffffffffffffffffffffffff16815260200190815260200160002054905060008114151515610da957600080fd5b600860003373ffffffffffffffffffffffffffffffffffffffff1673ffffffffffffffffffffffffffffffffffffffff1681526020019081526020016000206000905560076000828152602001908152602001600020600080820160006101000a81549073ffffffffffffffffffffffffffffffffffffffff02191690556001820160009055505050565b6000600160003373ffffffffffffffffffffffffffffffffffffffff1673ffffffffffffffffffffffffffffffffffffffff1681526020019081526020016000205414151515610e8357600080fd5b806000600860008373ffffffffffffffffffffffffffffffffffffffff1673ffffffffffffffffffffffffffffffffffffffff16815260200190815260200160002054141515610ed257600080fd5b610edb826105cf565b6001600960008282540192505081905550600954600860008473ffffffffffffffffffffffffffffffffffffffff1673ffffffffffffffffffffffffffffffffffffffff1681526020019081526020016000208190555060408051908101604052808373ffffffffffffffffffffffffffffffffffffffff168152602001600181525060076000600860008673ffffffffffffffffffffffffffffffffffffffff1673ffffffffffffffffffffffffffffffffffffffff16815260200190815260200160002054815260200190815260200160002060008201518160000160006101000a81548173ffffffffffffffffffffffffffffffffffffffff021916908373ffffffffffffffffffffffffffffffffffffffff16021790555060208201518160010155905050505056fea165627a7a7230582050e2484873fb4bb836fe502c8fd657a62fd49a54ac861d39f89f9dae442edae70029",
  "source": "pragma solidity ^0.5.0;\n\ncontract Pool {\n\n\t// Basically master is the creator of a pool\n\t// It can only be one person or any other number\n\t// of masters up to 5 (exclusively)\n\t//\n\t// Currently all masters have similar rights and\n\t// power and unlike arbitrators they're not elected\n\t//\n\t// Once a person wants to become an arbitrator\n\t// one is added to a pending list and after that\n\t// all of the masters must confirm that\n\tstruct Master {\n\t\tmapping(address => bool) confirmedArbitrators;\n\t}\n\n\tstruct Arbitrator {\n\t\taddress ethAddress;\n\t\tuint256 reputation;\n\t}\n\n\tmapping(uint256 => Master) masters;\n\tmapping(address => uint256) public mastersIds;\n\tuint256 public mastersCount;\n\n\tmapping(uint256 => uint256) public pendingArbitrators;\n\tmapping(address => uint256) public pendingArbitratorsIds;\n\tmapping(uint256 => address) public pendingArbitratorsAddresses;\n\tuint256 public pendingArbitratorsCount;\n\n\tmapping(uint256 => Arbitrator) arbitrators;\n\tmapping(address => uint256) public arbitratorsIds;\n\tuint256 public arbitratorsCount;\n\n\tstring public name;\n\n\tevent PendingArbitrator(address _arbitrator);\n\n\tmodifier onlyMasters {\n\t\trequire(mastersIds[msg.sender] != 0);\n\t\t_;\n\t}\n\n\tmodifier isPendingArbitrator(address _arbitrator) {\n\t\trequire(arbitratorsIds[_arbitrator] == 0);\n\t\t_;\n\t}\n\n\tconstructor(string memory _name, address[] memory _masters) public {\n\t\trequire(_masters.length > 0 && _masters.length < 5);\n\n\t\tname = _name;\n\n\t\tfor(uint256 i = 0; i < _masters.length; ++i) {\n\t\t\tmastersIds[_masters[i]] = i + 1;\n\t\t\tmasters[mastersIds[_masters[i]]] = Master();\n\t\t}\n\n\t\tmastersCount = _masters.length;\n\t\tpendingArbitratorsCount = 0;\n\t\tarbitratorsCount = 0;\n\t}\n\n\tfunction becomeArbitrator() public isPendingArbitrator(msg.sender) {\n\t\trequire(mastersIds[msg.sender] == 0);\n\n\t\tpendingArbitratorsCount += 1;\n\t\tpendingArbitratorsIds[msg.sender] = pendingArbitratorsCount;\n\t\tpendingArbitrators[pendingArbitratorsIds[msg.sender]] = 1;\n\t\tpendingArbitratorsAddresses[pendingArbitratorsIds[msg.sender]] = msg.sender;\n\n\t\temit PendingArbitrator(msg.sender);\n\t}\n\n\tfunction leavePool() public {\n\t\tuint256 id = arbitratorsIds[msg.sender];\n\t\trequire(id != 0);\n\t\tdelete arbitratorsIds[msg.sender];\n\t\tdelete arbitrators[id];\n\t}\n\n\tfunction confirmArbitrator(address _arbitrator) public onlyMasters isPendingArbitrator(_arbitrator) {\n\t\trequire(!masters[mastersIds[msg.sender]].confirmedArbitrators[_arbitrator]);\n\t\tmasters[mastersIds[msg.sender]].confirmedArbitrators[_arbitrator] = true;\n\n\t\tpendingArbitrators[pendingArbitratorsIds[_arbitrator]]++;\n\n\t\tif (pendingArbitrators[pendingArbitratorsIds[_arbitrator]] == mastersCount + 1) {\n\t\t\taddArbitrator(_arbitrator);\n\t\t}\n\t}\n\n\tfunction denyArbitrator(address _arbitrator) public onlyMasters isPendingArbitrator(_arbitrator) {\n\n\t\tfor(uint256 i = 1; i < mastersCount; ++i) {\n\t\t\tmasters[i].confirmedArbitrators[_arbitrator] = false;\n\t\t}\n\n\t\tpendingArbitrators[pendingArbitratorsIds[_arbitrator]] = 0;\n\t}\n\n\tfunction addArbitrator(address _arbitrator) private onlyMasters isPendingArbitrator(_arbitrator) {\n\t\tdenyArbitrator(_arbitrator);\n\t\tarbitratorsCount += 1;\n\t\tarbitratorsIds[_arbitrator] = arbitratorsCount;\n\t\tarbitrators[arbitratorsIds[_arbitrator]] = Arbitrator(_arbitrator, 1);\n\t}\n\n\t/*function getMaster(uint256 _index) public returns (mapping(address => bool) memory) {\n\t\treturn masters[_index].confirmedArbitrators;\n\t}*/\n\n\tfunction getArbitrator(uint256 _index) public view returns (address, uint256) {\n\t\treturn (arbitrators[_index].ethAddress, arbitrators[_index].reputation);\n\t}\n}\n",
  "sourcePath": "/Users/kirillkorolev/Desktop/idrm/contracts/idrm/Pool.sol",
  "compiler": {
    "name": "solc",
    "version": "0.5.0+commit.1d4f565a.Emscripten.clang"
  },
  "schemaVersion": "3.0.2",
  "updatedAt": "2019-03-16T08:53:34.691Z",
  "devdoc": {
    "methods": {}
  },
  "userdoc": {
    "methods": {}
  }
}